{
  "_format": "hh-sol-artifact-1",
  "contractName": "MilestonePaymentsProxyFactory",
  "sourceName": "contracts/Utility/MilestonePaymentsProxyFactory.sol",
  "abi": [
    {
      "inputs": [
        {
          "internalType": "address",
          "name": "_implementation",
          "type": "address"
        }
      ],
      "stateMutability": "nonpayable",
      "type": "constructor"
    },
    {
      "inputs": [],
      "name": "CloneFailure",
      "type": "error"
    },
    {
      "anonymous": false,
      "inputs": [
        {
          "indexed": false,
          "internalType": "address",
          "name": "_clone",
          "type": "address"
        }
      ],
      "name": "NewClone",
      "type": "event"
    },
    {
      "anonymous": false,
      "inputs": [
        {
          "indexed": true,
          "internalType": "address",
          "name": "previousOwner",
          "type": "address"
        },
        {
          "indexed": true,
          "internalType": "address",
          "name": "newOwner",
          "type": "address"
        }
      ],
      "name": "OwnershipTransferred",
      "type": "event"
    },
    {
      "inputs": [
        {
          "internalType": "uint256",
          "name": "",
          "type": "uint256"
        }
      ],
      "name": "allClones",
      "outputs": [
        {
          "internalType": "address",
          "name": "",
          "type": "address"
        }
      ],
      "stateMutability": "view",
      "type": "function"
    },
    {
      "inputs": [
        {
          "internalType": "bytes32",
          "name": "_merkleRoot",
          "type": "bytes32"
        },
        {
          "internalType": "address",
          "name": "_token",
          "type": "address"
        },
        {
          "internalType": "uint32",
          "name": "_period",
          "type": "uint32"
        },
        {
          "internalType": "address",
          "name": "_mediator",
          "type": "address"
        }
      ],
      "name": "createNewAgreement",
      "outputs": [
        {
          "internalType": "address",
          "name": "instance",
          "type": "address"
        }
      ],
      "stateMutability": "nonpayable",
      "type": "function"
    },
    {
      "inputs": [],
      "name": "implementationContract",
      "outputs": [
        {
          "internalType": "address",
          "name": "",
          "type": "address"
        }
      ],
      "stateMutability": "view",
      "type": "function"
    },
    {
      "inputs": [],
      "name": "owner",
      "outputs": [
        {
          "internalType": "address",
          "name": "",
          "type": "address"
        }
      ],
      "stateMutability": "view",
      "type": "function"
    },
    {
      "inputs": [],
      "name": "renounceOwnership",
      "outputs": [],
      "stateMutability": "nonpayable",
      "type": "function"
    },
    {
      "inputs": [
        {
          "internalType": "address",
          "name": "newOwner",
          "type": "address"
        }
      ],
      "name": "transferOwnership",
      "outputs": [],
      "stateMutability": "nonpayable",
      "type": "function"
    }
  ],
  "bytecode": "0x6080346100a757601f61060738819003918201601f19168301916001600160401b038311848410176100ac578084926020946040528339810103126100a757516001600160a01b0390818116908190036100a75760005460018060a01b0319903382821617600055604051933391167f8be0079c531659141344cd1fd0a4f28419497f9722a3daafe3b4186f6b6457e0600080a3600154161760015561054490816100c38239f35b600080fd5b634e487b7160e01b600052604160045260246000fdfe608060408181526004908136101561001657600080fd5b600092833560e01c908163651531f11461023b57508063715018a6146101de5780638da5cb5b146101b657806399e7d05614610189578063d7741cad146101325763f2fde38b1461006657600080fd5b3461012e57602036600319011261012e576001600160a01b0382358181169391929084900361012a576100976104b6565b83156100d857505082546001600160a01b0319811683178455167f8be0079c531659141344cd1fd0a4f28419497f9722a3daafe3b4186f6b6457e08380a380f35b906020608492519162461bcd60e51b8352820152602660248201527f4f776e61626c653a206e6577206f776e657220697320746865207a65726f206160448201526564647265737360d01b6064820152fd5b8480fd5b8280fd5b50903461012e57602036600319011261012e573560025481101561012e5760026020935260018060a01b03907f405787fa12a823e0f2b7631cc41b3ba8828b3321ca811111fa75cd3aa3bb5ace0154169051908152f35b8382346101b257816003193601126101b25760015490516001600160a01b039091168152602090f35b5080fd5b8382346101b257816003193601126101b257905490516001600160a01b039091168152602090f35b83346102385780600319360112610238576101f76104b6565b80546001600160a01b03198116825581906001600160a01b03167f8be0079c531659141344cd1fd0a4f28419497f9722a3daafe3b4186f6b6457e08280a380f35b80fd5b929050346104b25760803660031901126104b2576001600160a01b036024803582811696929087900361012e576044359063ffffffff82168092036104b2576064359781891680990361012a57600154608881901c62ffffff16763d602d80600a3d3981f3363d3d373d3d3d363d7300000017865260781b6effffffffffffffffffffffffffffff19166e5af43d82803e903d91602b57fd5bf3176020908152986037600987f092831698891561047957508751938a85019263267c368160e11b84528835878701526044860152606485015260848401526084835260c083019267ffffffffffffffff938181108582111761046757885251859283929083905af1903d15610461573d81811161044f57865191601f8201601f19908116603f011683019081118382101761043d578752815283883d92013e5b1561042d57600254926801000000000000000084101561041c57600184018060025584101561040b575050600290527f405787fa12a823e0f2b7631cc41b3ba8828b3321ca811111fa75cd3aa3bb5ace01826bffffffffffffffffffffffff60a01b8254161790557fcc1e9c890bc4f4943c457abb8d17f97703b9f7144e1f4a69e50c6e4988ef38b7838251848152a151908152f35b634e487b7160e01b83526032905281fd5b634e487b7160e01b83526041905281fd5b8351631f1a091560e11b81528390fd5b634e487b7160e01b8652604187528486fd5b634e487b7160e01b8552604186528385fd5b50610375565b634e487b7160e01b8752604188528587fd5b62461bcd60e51b81528781018b905260168682015275115490cc4c4d8dce8818dc99585d194819985a5b195960521b6044820152606490fd5b8380fd5b6000546001600160a01b031633036104ca57565b606460405162461bcd60e51b815260206004820152602060248201527f4f776e61626c653a2063616c6c6572206973206e6f7420746865206f776e65726044820152fdfea26469706673582212205380483e6e1b4cf212a6e210c45b209ec77dae19b7d3ff83179d1453c8f32f7b64736f6c63430008110033",
  "linkReferences": {},
  "deployedLinkReferences": {}
}