{
  "_format": "hh-sol-artifact-1",
  "contractName": "MilestonePaymentsInitializable",
  "sourceName": "contracts/Utility/MilestonePaymentsInitializable.sol",
  "abi": [
    {
      "inputs": [],
      "name": "FullyClaimed",
      "type": "error"
    },
    {
      "inputs": [],
      "name": "InvalidMilestone",
      "type": "error"
    },
    {
      "inputs": [],
      "name": "InvalidPeriod",
      "type": "error"
    },
    {
      "inputs": [],
      "name": "NotInMerkle",
      "type": "error"
    },
    {
      "inputs": [],
      "name": "NotMediator",
      "type": "error"
    },
    {
      "anonymous": false,
      "inputs": [
        {
          "indexed": false,
          "internalType": "address",
          "name": "claimant",
          "type": "address"
        },
        {
          "indexed": false,
          "internalType": "uint256",
          "name": "balance",
          "type": "uint256"
        }
      ],
      "name": "Claimed",
      "type": "event"
    },
    {
      "anonymous": false,
      "inputs": [
        {
          "indexed": false,
          "internalType": "uint8",
          "name": "version",
          "type": "uint8"
        }
      ],
      "name": "Initialized",
      "type": "event"
    },
    {
      "anonymous": false,
      "inputs": [
        {
          "indexed": false,
          "internalType": "bytes32",
          "name": "oldMerkleRoot",
          "type": "bytes32"
        },
        {
          "indexed": false,
          "internalType": "bytes32",
          "name": "newMerkleRoot",
          "type": "bytes32"
        }
      ],
      "name": "MerkelRootUpdated",
      "type": "event"
    },
    {
      "anonymous": false,
      "inputs": [
        {
          "indexed": false,
          "internalType": "uint32",
          "name": "newMilestone",
          "type": "uint32"
        }
      ],
      "name": "MilestoneUpdated",
      "type": "event"
    },
    {
      "anonymous": false,
      "inputs": [
        {
          "indexed": false,
          "internalType": "uint32",
          "name": "newPeriod",
          "type": "uint32"
        }
      ],
      "name": "PeriodUpdated",
      "type": "event"
    },
    {
      "inputs": [
        {
          "internalType": "address",
          "name": "to",
          "type": "address"
        },
        {
          "internalType": "uint256",
          "name": "totalClaim",
          "type": "uint256"
        },
        {
          "internalType": "bytes32[]",
          "name": "proof",
          "type": "bytes32[]"
        }
      ],
      "name": "claim",
      "outputs": [],
      "stateMutability": "nonpayable",
      "type": "function"
    },
    {
      "inputs": [
        {
          "internalType": "address",
          "name": "",
          "type": "address"
        }
      ],
      "name": "cumulativeClaimed",
      "outputs": [
        {
          "internalType": "uint256",
          "name": "",
          "type": "uint256"
        }
      ],
      "stateMutability": "view",
      "type": "function"
    },
    {
      "inputs": [
        {
          "internalType": "address",
          "name": "to",
          "type": "address"
        },
        {
          "internalType": "uint256",
          "name": "totalClaim",
          "type": "uint256"
        },
        {
          "internalType": "bytes32[]",
          "name": "proof",
          "type": "bytes32[]"
        }
      ],
      "name": "getNextClaim",
      "outputs": [
        {
          "internalType": "uint256",
          "name": "nextClaim",
          "type": "uint256"
        }
      ],
      "stateMutability": "view",
      "type": "function"
    },
    {
      "inputs": [
        {
          "internalType": "bytes32",
          "name": "_merkleRoot",
          "type": "bytes32"
        },
        {
          "internalType": "contract IERC20",
          "name": "_token",
          "type": "address"
        },
        {
          "internalType": "uint32",
          "name": "_period",
          "type": "uint32"
        },
        {
          "internalType": "address",
          "name": "_mediator",
          "type": "address"
        }
      ],
      "name": "initialize",
      "outputs": [],
      "stateMutability": "nonpayable",
      "type": "function"
    },
    {
      "inputs": [],
      "name": "mediator",
      "outputs": [
        {
          "internalType": "address",
          "name": "",
          "type": "address"
        }
      ],
      "stateMutability": "view",
      "type": "function"
    },
    {
      "inputs": [],
      "name": "merkleRoot",
      "outputs": [
        {
          "internalType": "bytes32",
          "name": "",
          "type": "bytes32"
        }
      ],
      "stateMutability": "view",
      "type": "function"
    },
    {
      "inputs": [],
      "name": "milestone",
      "outputs": [
        {
          "internalType": "uint32",
          "name": "",
          "type": "uint32"
        }
      ],
      "stateMutability": "view",
      "type": "function"
    },
    {
      "inputs": [],
      "name": "period",
      "outputs": [
        {
          "internalType": "uint32",
          "name": "",
          "type": "uint32"
        }
      ],
      "stateMutability": "view",
      "type": "function"
    },
    {
      "inputs": [
        {
          "internalType": "bytes32",
          "name": "_merkleRoot",
          "type": "bytes32"
        }
      ],
      "name": "setMerkleRoot",
      "outputs": [],
      "stateMutability": "nonpayable",
      "type": "function"
    },
    {
      "inputs": [
        {
          "internalType": "uint32",
          "name": "_milestone",
          "type": "uint32"
        }
      ],
      "name": "setMilestone",
      "outputs": [],
      "stateMutability": "nonpayable",
      "type": "function"
    },
    {
      "inputs": [
        {
          "internalType": "uint32",
          "name": "_period",
          "type": "uint32"
        }
      ],
      "name": "setPeriod",
      "outputs": [],
      "stateMutability": "nonpayable",
      "type": "function"
    },
    {
      "inputs": [],
      "name": "token",
      "outputs": [
        {
          "internalType": "contract IERC20",
          "name": "",
          "type": "address"
        }
      ],
      "stateMutability": "view",
      "type": "function"
    }
  ],
  "bytecode": "0x6080806040523461001657610acc908161001c8239f35b600080fdfe6040608081526004908136101561001557600080fd5b600091823560e01c90816320bb33831461070c5781632eb4a7ab146106ed5781633d13f874146104e15781634cf86d02146103335781636d0501f61461030a5781637cb64759146102a6578163890705b5146101f9578163a9919576146101bb578163b8ec2d381461011b57508063dbac7806146100f6578063ef78d4fd146100d25763fc0c546a146100a757600080fd5b346100ce57816003193601126100ce5760035490516001600160a01b039091168152602090f35b5080fd5b50346100ce57816003193601126100ce5760209063ffffffff600254169051908152f35b50346100ce57816003193601126100ce576002549051602091821c63ffffffff168152f35b9050346101b75760203660031901126101b7576101366107b3565b6002549092909182821c6001600160a01b031633036101a95763ffffffff809416938360201c16841061019b575060207fc33b48a6dbdd20dd4c4b125531c6133580ef6c10002a1824a470c94f0071d5889151848152a163ffffffff19161760025580f35b90516302e8f35960e31b8152fd5b9051631d55f1bb60e01b8152fd5b8280fd5b9050346101b75760203660031901126101b75780356001600160a01b038116908190036101f5579282916020948252845220549051908152f35b8380fd5b9050346101b75760203660031901126101b7576102146107b3565b6002549290919083811c6001600160a01b031633036102995763ffffffff91828416928516831161028b5750602067ffffffff0000000093927f3ab8b3b0abdde10dd3305aee5f60ae384074d39a56197ba4b8268ef6755f1fe09251908152a160201b169067ffffffff0000000019161760025580f35b90516302e845cd60e61b8152fd5b51631d55f1bb60e01b8152fd5b919050346101b75760203660031901126101b75760025482359290821c6001600160a01b031633036101a957507f936fd71fceff3b4f98f4935ac269e4f94b4b25e3e38c519d3ff3db222a27117a906001548151908152836020820152a160015580f35b5050346100ce57816003193601126100ce576002548151911c6001600160a01b03168152602090f35b9050346101b75760803660031901126101b7576001600160a01b03602435818116908190036104dd576044359063ffffffff82168092036104d95760643592831683036104d95785549360ff8560081c1615948580966104cc575b80156104b5575b1561045b5760ff19811660011788558561044a575b506001831061043c5735600155600380546001600160a01b0319169190911790556002805467ffffffff00000001600160e01b0319169190911791841b68010000000000000000600160e01b0316919091179055610406575080f35b60207f7f26b83ff96e1f2b6a682f133852f6798a09c465da95921460cefb38474024989161ff001984541684555160018152a180f35b85516302e8f35960e31b8152fd5b61ffff1916610101178755386103aa565b865162461bcd60e51b8152602081840152602e60248201527f496e697469616c697a61626c653a20636f6e747261637420697320616c72656160448201526d191e481a5b9a5d1a585b1a5e995960921b6064820152608490fd5b50303b1580156103955750600160ff821614610395565b50600160ff82161061038e565b8580fd5b8480fd5b839150346100ce576104f236610749565b90939160018060a01b039061051a828616918289526020948686528a8a2054988992896108d2565b908752838352878720958101909555600354875163a9059cbb60e01b8185019081526001600160a01b03871660248301526044808301899052825292601f1992166105666064836107c6565b89519367ffffffffffffffff92858c01848111878210176106da578c528686527f5361666545524332303a206c6f772d6c6576656c2063616c6c206661696c656486880152518a9182919082855af1913d156106ca573d9081116106b757906105ec949392916105df878d5195601f84011601856107c6565b83523d8a8785013e6107fe565b8051828115918215610697575b505090501561064257505092516001600160a01b0390931683526020830152907fd8138f8a3f377c5259ca548e70e4c2de94f129f5a11036a15b69513cba2b426a90604090a180f35b855162461bcd60e51b815291820152602a60248201527f5361666545524332303a204552433230206f7065726174696f6e20646964206e6044820152691bdd081cdd58d8d9595960b21b606482015260849150fd5b83809293500103126104d95781015180151581036104d9578082896105f9565b634e487b7160e01b8a526041875260248afd5b50906105ec9392506060916107fe565b634e487b7160e01b8c526041895260248cfd5b5050346100ce57816003193601126100ce576020906001549051908152f35b9050346101b757602092826107429261072436610749565b6001600160a01b0384168752938952939094205493919291906108d2565b9051908152f35b9060606003198301126107ae576004356001600160a01b03811681036107ae57916024359160443567ffffffffffffffff928382116107ae57806023830112156107ae5781600401359384116107ae5760248460051b830101116107ae576024019190565b600080fd5b6004359063ffffffff821682036107ae57565b90601f8019910116810190811067ffffffffffffffff8211176107e857604052565b634e487b7160e01b600052604160045260246000fd5b919290156108605750815115610812575090565b3b1561081b5790565b60405162461bcd60e51b815260206004820152601d60248201527f416464726573733a2063616c6c20746f206e6f6e2d636f6e74726163740000006044820152606490fd5b8251909150156108735750805190602001fd5b6040519062461bcd60e51b82528160208060048301528251908160248401526000935b8285106108b9575050604492506000838284010152601f80199101168101030190fd5b8481018201518686016044015293810193859350610896565b91909182851015610a845760025463ffffffff916020938383861c1694600190818710610a72576040988951828101956bffffffffffffffffffffffff199060601b16865289603482015260348152606081019467ffffffffffffffff96828710888811176107e857868d528251902085549784116107e85760059184831b9461095e8787018a6107c6565b8852608094858501908201913683116107ae5798979695949398905b828210610a63575050509084939291968d6000955b6109ef575b5050505050505050036109de57169182156109c8570204908282146109b857500390565b51636c58830960e01b8152600490fd5b634e487b7160e01b600052601260045260246000fd5b845163452c2df160e11b8152600490fd5b90919293949596978851871015610a5b5786831b840185015191600083831015610a4e57505060005284528c6000205b966000198614610a385795948501939291908d8661098f565b634e487b7160e01b600052601160045260246000fd5b9190928252865220610a1f565b975080610994565b8135815290860190860161097a565b6040516302e845cd60e61b8152600490fd5b604051636c58830960e01b8152600490fdfea264697066735822122051a4bba5cf83889c2ebdf3a93f9023246c9467508469802ce5e7522e0987ffb064736f6c63430008110033",
  "linkReferences": {},
  "deployedLinkReferences": {}
}